:020000040800F2
:1000000000000120FD74000800000000A56F00083A
:1000100000000000B56F0008C56F00080000000078
:10002000000000000000000000000000457F000804
:1000300000000000000000005D7F0008D56F000890
:1000400000000000000000000000000000000000B0
:100050000000000000000000518700087D870008B4
:100060000000000000000000000000000000000090
:100070000000000000000000000000000000000080
:100080000000000000000000000000000000000070
:10009000000000000000000000000000A987000828
:1000A0000000000000000000000000000000000050
:1000B000000000000000000000000000F9880008B7
:1000C000358A00080000000000000000C177000829
:1000D000000000004567000805680008D9680008AE
:1000E000158800080000000000000000000000006B
:1000F0000000000000000000357D00080000000046
:1001000000000000000000000000000000000000EF
:1001100000000000000000000000000000000000DF
:100120000000000000000000218600080000000020
:1001300081F0004102E000BF83F0004330B54FEA98
:1001400041044FEA430594EA050F08BF90EA020F05
:100150001FBF54EA000C55EA020C7FEA645C7FEA98
:10016000655C00F0E2804FEA5454D4EB5555B8BFBB
:100170006D420CDD2C4480EA020281EA030382EA2C
:10018000000083EA010180EA020281EA0303362DBE
:1001900088BF30BD11F0004F4FEA01314FF4801C91
:1001A0004CEA113102D0404261EB410113F0004FA3
:1001B0004FEA03334CEA133302D0524263EB43035A
:1001C00094EA050F00F0A780A4F10104D5F1200EF8
:1001D0000DDB02FA0EFC22FA05F2801841F1000153
:1001E00003FA0EF2801843FA05F359410EE0A5F127
:1001F00020050EF1200E012A03FA0EFC28BF4CF058
:10020000020C43FA05F3C01851EBE37101F000450D
:1002100007D54FF0000EDCF1000C7EEB00006EEB1A
:100220000101B1F5801F1BD3B1F5001F0CD34908A4
:100230005FEA30004FEA3C0C04F101044FEA4452FB
:1002400012F5800F80F09A80BCF1004F08BF5FEA82
:10025000500C50F1000041EB045141EA050130BD62
:100260005FEA4C0C404141EB010111F4801FA4F105
:100270000104E9D191F0000F04BF01460020B1FA5A
:1002800081F308BF2033A3F10B03B3F120020CDA92
:100290000C3208DD02F1140CC2F10C0201FA0CF070
:1002A00021FA02F10CE002F11402D8BFC2F1200CD5
:1002B00001FA02F120FA0CFCDCBF41EA0C0190408B
:1002C000E41AA2BF01EB0451294330BD6FEA0404D4
:1002D0001F3C1CDA0C340EDC04F11404C4F12002BF
:1002E00020FA04F001FA02F340EA030021FA04F3D1
:1002F00045EA030130BDC4F10C04C4F1200220FA28
:1003000002F001FA04F340EA0300294630BD21FA65
:1003100004F0294630BD94F0000F83F4801306BF2B
:1003200081F480110134013D4EE77FEA645C18BF1F
:100330007FEA655C29D094EA050F08BF90EA020FB6
:1003400005D054EA000C04BF1946104630BD91EAAE
:10035000030F1EBF0021002030BD5FEA545C05D1B1
:100360004000494128BF41F0004130BD14F58004F0
:100370003CBF01F5801130BD01F0004545F0FE4164
:1003800041F470014FF0000030BD7FEA645C1ABF99
:10039000194610467FEA655C1CBF0B46024650EAD0
:1003A000013406BF52EA033591EA030F41F40021FC
:1003B00030BD00BF90F0000F04BF0021704730B582
:1003C0004FF4806404F132044FF000054FF0000157
:1003D00050E700BF90F0000F04BF0021704730B518
:1003E0004FF4806404F1320410F0004548BF4042ED
:1003F0004FF000013EE700BF42004FEAE2014FEA42
:1004000031014FEA02701FBF12F07F4393F07F4F1C
:1004100081F06051704792F0000F14BF93F07F4F4E
:10042000704730B54FF4607401F0004521F0004191
:1004300020E700BF50EA010208BF704730B54FF017
:1004400000050AE050EA010208BF704730B511F01C
:10045000004502D5404261EB41014FF4806404F154
:1004600032045FEA915C3FF4DCAE4FF003025FEAD6
:10047000DC0C18BF03325FEADC0C18BF033202EB5E
:10048000DC02C2F1200300FA03FC20FA02F001FAB8
:1004900003FE40EA0E0021FA02F11444C1E600BF57
:1004A00070B54FF0FF0C4CF4E06C1CEA11541DBF0A
:1004B0001CEA135594EA0C0F95EA0C0F00F0DEF8D5
:1004C0002C4481EA030621EA4C5123EA4C5350EABA
:1004D000013518BF52EA033541F4801143F480130B
:1004E00038D0A0FB02CE4FF00005E1FB02E506F09C
:1004F0000042E0FB03E54FF00006E1FB03569CF0F1
:10050000000F18BF4EF0010EA4F1FF04B6F5007FF6
:1005100064F5407404D25FEA4E0E6D4146EB060668
:1005200042EAC62141EA55514FEAC52040EA5E50F1
:100530004FEACE2EB4F1FD0C88BFBCF5E06F1ED89B
:10054000BEF1004F08BF5FEA500E50F1000041EBD2
:10055000045170BD06F0004646EA010140EA02007F
:1005600081EA0301B4EB5C04C2BFD4EB0C0541EAA1
:10057000045170BD41F480114FF0000E013C00F3B6
:10058000AB8014F1360FDEBF002001F0004170BDDA
:10059000C4F10004203C35DA0C341BDC04F11404F3
:1005A000C4F1200500FA05F320FA04F001FA05F27F
:1005B00040EA020001F0004221F0004110EBD3704C
:1005C00021FA04F642EB06015EEA430E08BF20EA78
:1005D000D37070BDC4F10C04C4F1200500FA04F31B
:1005E00020FA05F001FA04F240EA020001F00041AD
:1005F00010EBD37041F100015EEA430E08BF20EA20
:10060000D37070BDC4F1200500FA05F24EEA020E67
:1006100020FA04F301FA05F243EA020321FA04F096
:1006200001F0004121FA04F220EA020000EBD3704D
:100630005EEA430E08BF20EAD37070BD94F0000F4D
:100640000FD101F00046400041EB010111F4801F81
:1006500008BF013CF7D041EA060195F0000F18BF32
:10066000704703F00046520043EB030313F4801F6E
:1006700008BF013DF7D043EA0603704794EA0C0F28
:100680000CEA135518BF95EA0C0F0CD050EA41063E
:1006900018BF52EA4306D1D181EA030101F00041BB
:1006A0004FF0000070BD50EA410606BF10461946E3
:1006B00052EA430619D094EA0C0F02D150EA0136EF
:1006C00013D195EA0C0F05D152EA03361CBF104630
:1006D00019460AD181EA030101F0004141F0FE41CF
:1006E00041F470014FF0000070BD41F0FE4141F453
:1006F000780170BD70B54FF0FF0C4CF4E06C1CEA53
:1007000011541DBF1CEA135594EA0C0F95EA0C0F07
:1007100000F0A7F8A4EB050481EA030E52EA0335C2
:100720004FEA013100F088804FEA03334FF08055E3
:1007300045EA131343EA12634FEA022245EA111510
:1007400045EA10654FEA00260EF000419D4208BFC1
:10075000964244F1FD0404F5407402D25B084FEA6E
:100760003202B61A65EB03055B084FEA32024FF41A
:1007700080104FF4002CB6EB020E75EB030E22BF77
:10078000B61A754640EA0C005B084FEA3202B6EB37
:10079000020E75EB030E22BFB61A754640EA5C00E6
:1007A0005B084FEA3202B6EB020E75EB030E22BF76
:1007B000B61A754640EA9C005B084FEA3202B6EB77
:1007C000020E75EB030E22BFB61A754640EADC0036
:1007D00055EA060E18D04FEA051545EA16754FEA98
:1007E00006164FEAC30343EA52734FEAC2025FEAB6
:1007F0001C1CC0D111F4801F0BD141EA00014FF045
:1008000000004FF0004CB6E711F4801F04BF014315
:100810000020B4F1FD0C88BFBCF5E06F3FF6AFAE31
:10082000B5EB030C04BFB6EB020C5FEA500C50F1C1
:10083000000041EB045170BD0EF0004E4EEA113144
:1008400014EB5C04C2BFD4EB0C0541EA045170BD4B
:1008500041F480114FF0000E013C90E645EA060E8F
:100860008DE60CEA135594EA0C0F08BF95EA0C0FBD
:100870003FF43BAF94EA0C0F0AD150EA01347FF405
:1008800034AF95EA0C0F7FF425AF104619462CE7DC
:1008900095EA0C0F06D152EA03353FF4FDAE10463F
:1008A000194622E750EA410618BF52EA43067FF490
:1008B000C5AE50EA41047FF40DAF52EA43057FF420
:1008C000EBAE12E74FF0FF3C06E000BF4FF0010C2B
:1008D00002E000BF4FF0010C4DF804CD4FEA410C8F
:1008E0007FEA6C5C4FEA430C18BF7FEA6C5C1BD05C
:1008F00001B050EA410C0CBF52EA430C91EA030FDD
:1009000002BF90EA020F0020704710F1000F91EA39
:10091000030F58BF994208BF90422CBFD8176FEA07
:10092000E37040F0010070474FEA410C7FEA6C5CD5
:1009300002D150EA013C07D14FEA430C7FEA6C5CDC
:10094000D6D152EA033CD3D05DF8040B704700BF08
:100950008446104662468C461946634600E000BF56
:1009600001B5FFF7B7FF002848BF10F1000F01BD28
:100970004DF808EDFFF7F4FF0CBF012000205DF8F3
:1009800008FB00BF4DF808EDFFF7EAFF34BF012078
:1009900000205DF808FB00BF4DF808EDFFF7E0FF11
:1009A00094BF012000205DF808FB00BF4DF808ED62
:1009B000FFF7CEFF94BF012000205DF808FB00BFC9
:1009C0004DF808EDFFF7C4FF34BF012000205DF8AB
:1009D00008FB00BF4A0011D212F5001211D20DD54A
:1009E0006FF47873B3EB62520ED44FEAC12343F035
:1009F000004343EA505323FA02F070474FF00000DF
:100A0000704750EA013002D14FF0FF3070474FF08D
:100A1000000070474FF0FF0C1CEAD0521EBF1CEACA
:100A2000D15392EA0C0F93EA0C0F6FD01A4480EA6C
:100A3000010C400218BF5FEA41211ED04FF0006355
:100A400043EA501043EA5111A0FB01310CF0004081
:100A5000B1F5000F3EBF490041EAD3715B0040EAA7
:100A6000010062F17F02FD2A1DD8B3F1004F40EB77
:100A7000C25008BF20F00100704790F0000F0CF04A
:100A8000004C08BF49024CEA502040EA51207F3A0E
:100A9000C2BFD2F1FF0340EAC250704740F40000E9
:100AA0004FF00003013A5DDC12F1190FDCBF00F0DA
:100AB00000407047C2F10002410021FA02F1C2F188
:100AC000200200FA02FC5FEA310040F1000053EA24
:100AD0004C0308BF20EADC70704792F0000F00F072
:100AE000004C02BF400010F4000F013AF9D040EA78
:100AF0000C0093F0000F01F0004C02BF490011F40C
:100B0000000F013BF9D041EA0C018FE70CEAD15309
:100B100092EA0C0F18BF93EA0C0F0AD030F0004C89
:100B200018BF31F0004CD8D180EA010000F000403D
:100B3000704790F0000F17BF90F0004F084691F0FB
:100B4000000F91F0004F14D092EA0C0F01D1420235
:100B50000FD193EA0C0F03D14B0218BF084608D1FE
:100B600080EA010000F0004040F0FE4040F4000048
:100B7000704740F0FE4040F4400070474FF0FF0CDB
:100B80001CEAD0521EBF1CEAD15392EA0C0F93EA22
:100B90000C0F69D0A2EB030280EA010C49024FEA74
:100BA000402037D04FF0805343EA111143EA10132D
:100BB0000CF000408B4238BF5B0042F17D024FF4E5
:100BC000000C8B4224BF5B1A40EA0C00B3EB510FC0
:100BD00024BFA3EB510340EA5C00B3EB910F24BFA9
:100BE000A3EB910340EA9C00B3EBD10F24BFA3EB2E
:100BF000D10340EADC001B0118BF5FEA1C1CE0D1F6
:100C0000FD2A3FF650AF8B4240EBC25008BF20F0A8
:100C1000010070470CF0004C4CEA50207F32C2BFFC
:100C2000D2F1FF0340EAC250704740F400004FF099
:100C30000003013A37E792F0000F00F0004C02BFCA
:100C4000400010F4000F013AF9D040EA0C0093F094
:100C5000000F01F0004C02BF490011F4000F013BEE
:100C6000F9D041EA0C0195E70CEAD15392EA0C0F56
:100C700008D142027FF47DAF93EA0C0F7FF470AF8E
:100C8000084676E793EA0C0F04D14B023FF44CAFD1
:100C900008466EE730F0004C18BF31F0004CCAD166
:100CA00030F000427FF45CAF31F000437FF43CAFA2
:100CB0005FE700BF42000ED2B2F1FE4F0BD34FF000
:100CC0009E03B3EB126209D44FEA002343F00043C2
:100CD00023FA02F070474FF00000704712F1610FE5
:100CE00001D1420202D14FF0FF3070474FF00000B7
:100CF000704700BF82B001900091009B4FF0FF321F
:100D00001A60009B4FF000021A71009B4FF0000226
:100D10005A7101994FF000024FF00003C1E900231E
:100D200002B0704700B585B0CDE902010192009391
:100D3000009B4FF0FF321A60009B1B79002B0ED1F5
:100D4000009B4FF001021A71069BD3E90023019921
:100D5000C1E90023009B4FF001025A713EE0009B65
:100D60005B79012B2BD1DDE902014FF000024FF03E
:100D70000003FFF7FDFD0346002B2FD1019BD3E9B4
:100D80000023104619464FF000024FF00003FFF712
:100D9000EFFD0346002B06D04FF000024FF000039A
:100DA000C3F6F07303E04FF000024FF00003019927
:100DB000C1E90023009B4FF002025A710EE0DDE909
:100DC00002014FF000024FF00003FFF7D1FD034690
:100DD000002B03D0009B4FF001025A7105B000BDFB
:100DE00000B585B0CDE90001009A019921F00043DA
:100DF000104619464FF000024FF00003C4F23033A2
:100E0000FFF7C0FD0346002B4CD0DDE900014FF099
:100E100000024FF00003C3F6E073FFF7C7FD03467F
:100E2000002B12D0DDE900014FF000024FF000036B
:100E3000C3F6E073FFF782F902460B4610461946E7
:100E400008F09EF9CDE9020130E0DDE900014FF044
:100E500000024FF00003CBF6E073FFF7B1FD03464D
:100E6000002B0CD0DDE900014FF000024FF0000331
:100E7000FFF716FB02460B46CDE9022316E0DDE93B
:100E800000014FF000024FF00003C3F6E073FFF7DC
:100E900053F902460B461046194608F0E1F8CDE931
:100EA000020103E0DDE90023CDE90223DDE90223AD
:100EB0001046194605B000BD2DE9F04F8DB04FF03A
:100EC00001004FF005014FF0040205F057FB034607
:100ED0001A4640F6D853C2F2000383F848204FF078
:100EE00001004FF005014FF0010205F047FB0346FA
:100EF0001A4640F6D853C2F2000383F8492040F264
:100F00008013C2F20003D3E9104540F6D853C2F271
:100F1000000393F848301846FFF74CFA02460B4698
:100F200020462946FFF7BCFA02460B4616461F46E6
:100F300040F28013C2F20003D3E9124540F6D853C1
:100F4000C2F2000393F849301846FFF733FA02461D
:100F50000B4620462946FFF7A3FA02460B463046C9
:100F60003946FFF7EBF802460B46CDE90A2340F27B
:100F70008013C2F20003D3E9142310461946DDE9B9
:100F80000A23FFF7FFFC0346002B08D040F2801332
:100F9000C2F20003D3E91423CDE90A2316E040F29C
:100FA0008013C2F20003D3E9162310461946DDE987
:100FB0000A23FFF705FD0346002B07D040F28013FC
:100FC000C2F20003D3E91623CDE90A23DDE90A01C1
:100FD000FFF706FFCDE90A01DDE90A0101F04AF851
:100FE0000346002B06D1DDE90A0101F01DF8034696
:100FF000002B06D04FF000024FF00003CDE90A238A
:101000000BE0DDE90A014FF000024FF00003C4F2EB
:10101000F01308F03DF9CDE90A01DDE90A014FF0CE
:1010200000024FF00003FFF7ADFC0346002B0CD08D
:10103000DDF828800B9B83F0004940464946FFF7C6
:10104000C9FC0346C3F1000205E0DDE90A01FFF730
:10105000C1FC03461A4640F6D853C2F200039A6216
:1010600040F6D853C2F200039B6A4FF004001946C1
:1010700005F0BCFA4FF001004FF006014FF00402FA
:1010800005F07CFA03461A4640F6D853C2F2000334
:1010900083F84A2040F6D853C2F2000393F84A304E
:1010A0001846FFF787F940F6D853C2F20003C3E9A8
:1010B000000140F6D853C2F20003D3E90023A3494C
:1010C000009110461946A24AA24BFFF72BFE40F6AC
:1010D000D853C2F20003D3E9180140F28013C2F2E0
:1010E0000003D3E91823FFF76BFC0346002B08D05D
:1010F00040F28013C2F20003D3E90223CDE90A23B0
:1011000007E040F28013C2F20003D3E90023CDE9E7
:101110000A2340F28013C2F20003D3E91A231046D7
:101120001946DDE90A23FFF72DFC0346002B08D002
:1011300040F28013C2F20003D3E91A23CDE90A2357
:1011400016E040F28013C2F20003D3E91C231046DC
:101150001946DDE90A23FFF733FC0346002B07D0CD
:1011600040F28013C2F20003D3E91C23CDE90A2325
:10117000DDE90A01FFF734FECDE90A01DDE90A01E4
:1011800000F078FF0346002B06D1DDE90A0100F0EC
:101190004BFF0346002B06D04FF000024FF0000338
:1011A000CDE90A230BE0DDE90A014FF000024FF020
:1011B0000003C4F2F01308F06BF8CDE90A01DDE991
:1011C0000A014FF000024FF00003FFF7DBFB03467C
:1011D000002B0DD00A9B08930B9B83F000430993CF
:1011E000DDE90801FFF7F6FB0346C3F1000205E065
:1011F000DDE90A01FFF7EEFB03461A4640F6D85335
:10120000C2F20003DA6240F6D853C2F20003DB6A8E
:101210004FF00700194605F0E9F94FF001004FF0D3
:1012200007014FF0040205F0A9F903461A4640F6FB
:10123000D853C2F2000383F84B2040F6D853C2F2D1
:10124000000393F84B301846FFF7B4F840F6D85334
:10125000C2F20003C3E9020140F6D853C2F2000310
:10126000D3E902233C490091104619463B4A3C4BC6
:10127000FFF758FD40F6D853C2F20003D3E9160138
:1012800040F28013C2F20003D3E91E23FFF798FB5C
:101290000346002B08D040F28013C2F20003D3E9CA
:1012A0000623CDE90A2307E040F28013C2F20003CF
:1012B000D3E90423CDE90A2340F28013C2F20003EC
:1012C000D3E9202310461946DDE90A23FFF75AFB2C
:1012D0000346002B08D040F28013C2F20003D3E98A
:1012E0002023CDE90A2316E040F28013C2F2000366
:1012F000D3E9222310461946DDE90A23FFF760FBF4
:101300000346002B07D040F28013C2F20003D3E95A
:101310002223CDE90A23DDE90A01FFF761FDCDE9CA
:101320000A01DDE90A0100F0A5FE0346002B06D103
:10133000DDE90A0100F078FE0346002B12D04FF0E1
:1013400000024FF00003CDE90A2317E088020020D5
:10135000380E0020980E002080020020300E002061
:10136000900E0020DDE90A014FF000024FF000036B
:10137000C4F2F01307F08CFFCDE90A01DDE90A01A0
:101380004FF000024FF00003FFF7FCFA0346002B7A
:101390000DD00A9B06930B9B83F000430793DDE976
:1013A0000601FFF717FB0346C3F1000205E0DDE984
:1013B0000A01FFF70FFB03461A4640F6D853C2F264
:1013C00000031A6340F6D853C2F200031B6B4FF0C0
:1013D0000600194605F00AF94FF001004FF0080128
:1013E0004FF0040205F0CAF803461A4640F6D853F7
:1013F000C2F2000383F84C2040F6D853C2F2000337
:1014000093F84C301846FEF7D5FF40F6D853C2F299
:101410000003C3E9040140F6D853C2F20003D3E944
:101420000423B249009110461946B14A40F6886338
:10143000C2F20003FFF776FC40F6D853C2F2000375
:10144000D3E9140140F28013C2F20003D3E924234C
:10145000FFF7B6FA0346002B08D040F28013C2F221
:101460000003D3E90A23CDE90A2307E040F2801301
:10147000C2F20003D3E90823CDE90A2340F2801326
:10148000C2F20003D3E9262310461946DDE90A23F8
:10149000FFF778FA0346002B08D040F28013C2F21F
:1014A0000003D3E92623CDE90A2316E040F2801396
:1014B000C2F20003D3E9282310461946DDE90A23C6
:1014C000FFF77EFA0346002B07D040F28013C2F2EA
:1014D0000003D3E92823CDE90A23DDE90A01FFF758
:1014E0007FFCCDE90A01DDE90A0100F0C3FD0346F6
:1014F000002B06D1DDE90A0100F096FD0346002B22
:1015000006D04FF000024FF00003CDE90A230BE0B4
:10151000DDE90A014FF000024FF00003C4F2F013BE
:1015200007F0B6FECDE90A01DDE90A014FF000023D
:101530004FF00003FFF726FA0346002B0DD00A9B5D
:1015400004930B9B83F000430593DDE90401FFF74F
:1015500041FA0346C3F1000205E0DDE90A01FFF7A5
:1015600039FA03461A4640F6D853C2F200035A63CA
:1015700040F6D853C2F200035B6B4FF005001946EA
:1015800005F034F840F28013C2F20003D3E92A23B5
:10159000104619464FF000024FF00003FFF7F2F932
:1015A0000346002B0CD040F28013C2F20003D3E9B3
:1015B0002A0140F6D853C2F20003C3E9060127E02E
:1015C00040F28013C2F20003D3E92C2310461946DF
:1015D0004FF000024FF00003FFF7F2F90346002B33
:1015E0000CD040F28013C2F20003D3E92C0140F684
:1015F000D853C2F20003C3E9060109E040F6D8530C
:10160000C2F200034FF000004FF00001C3E90601F1
:101610004FF001004FF0030104F084FF024640F652
:10162000D853C2F200039A634FF001004FF0070154
:101630004FF0040204F0A2FF03461A4640F6D853C6
:10164000C2F2000383F84D2040F6D853C2F20003E3
:1016500093F84D301846FEF7ADFE40F28013C2F20B
:101660000003D3E92E23FFF7ABF90346002B18D074
:1016700040F28013C2F20003D3E90E4540F6D8537E
:10168000C2F200039B6B1846FEF7A4FE02460B460F
:1016900020462946FEF704FF02460B46CDE90A2301
:1016A0000BE040F6D853C2F200039B6B1846FEF7DE
:1016B00091FE02460B46CDE90A2340F28013C2F2A6
:1016C0000003D3E9302310461946DDE90A23FFF76A
:1016D00059F90346002B0DD040F28013C2F20003EB
:1016E000D3E93023CDE90A231BE000BF78020020B4
:1016F000280E002040F28013C2F20003D3E9322307
:1017000010461946DDE90A23FFF75AF90346002B74
:1017100007D040F28013C2F20003D3E93223CDE9AF
:101720000A23DDE90A01FFF75BFBCDE90A01DDE9E8
:101730000A0100F09FFC0346002B06D1DDE90A01F7
:1017400000F072FC0346002B06D04FF000024FF071
:101750000003CDE90A230BE0DDE90A014FF00002A6
:101760004FF00003C4F2F01307F092FDCDE90A0137
:10177000DDE90A014FF000024FF00003FFF702F924
:101780000346002B0DD00A9B02930B9B83F0004372
:101790000393DDE90201FFF71DF90346C3F10002DF
:1017A00005E0DDE90A01FFF715F903461A4640F6A0
:1017B000D853C2F20003DA6340F6D853C2F20003F2
:1017C000DB6B4FF00200194604F010FF40F280136B
:1017D000C2F20003D3E93423104619464FF0000249
:1017E0004FF00003FFF7CEF80346002B0CD040F279
:1017F0008013C2F20003D3E9340140F6D853C2F299
:101800000003C3E9080127E040F28013C2F200039D
:10181000D3E93623104619464FF000024FF000037B
:10182000FFF7CEF80346002B0CD040F28013C2F233
:101830000003D3E9360140F6D853C2F20003C3E9EE
:10184000080109E040F6D853C2F200034FF000004F
:101850004FF00001C3E908014FF001004FF0020111
:1018600004F060FE024640F6D853C2F200031A6448
:1018700040F6D853C2F2000393F84D301846FEF7F5
:1018800099FD40F28013C2F20003D3E93823FFF739
:1018900097F80346002B18D040F28013C2F20003E1
:1018A000D3E90C4540F6D853C2F200031B6C18462E
:1018B000FEF790FD02460B4620462946FEF7F0FD56
:1018C00002460B46CDE90A230BE040F6D853C2F29C
:1018D00000031B6C1846FEF77DFD02460B46CDE962
:1018E0000A2340F28013C2F20003D3E93A231046E0
:1018F0001946DDE90A23FFF745F80346002B08D017
:1019000040F28013C2F20003D3E93A23CDE90A235F
:1019100016E040F28013C2F20003D3E93C231046E4
:101920001946DDE90A23FFF74BF80346002B07D0E1
:1019300040F28013C2F20003D3E93C23CDE90A232D
:10194000DDE90A01FFF74CFACDE90A01DDE90A01F8
:1019500000F090FB0346002B06D1DDE90A0100F000
:1019600063FB0346002B06D04FF000024FF000034C
:10197000CDE90A230BE0DDE90A014FF000024FF048
:101980000003C4F2F01307F083FCCDE90A01DDE99E
:101990000A014FF000024FF00003FEF7F3FF034689
:1019A000002B0CD0DDF828A00B9B83F0004B504699
:1019B0005946FFF70FF80346C3F1000205E0DDE9E1
:1019C0000A01FFF707F803461A4640F6D853C2F259
:1019D00000035A6440F6D853C2F200035B6C4FF028
:1019E0000300194604F002FE4FF0010001F078FBFD
:1019F00049F65823C0F600031B68D3E908234FF0CB
:101A0000000001F05DFB49F65823C0F600031B6897
:101A1000D3E90E23104619464FF000024FF00003A1
:101A2000CBF6F073FEF7A4FF0346002B43D149F633
:101A30005823C0F600031B68D3E90E0149F658236A
:101A4000C0F600031B68D3E90823FEF775FB0246C6
:101A50000B4614461D4649F65823C0F600031B6882
:101A6000D3E90823104619464FF000024FF0000357
:101A7000C3F6B043FEF714FD02460B464FF00101DA
:101A80000E4620462946FEF79BFF0346002B02D157
:101A90004FF000031E46F3B283F00103DBB2002BCC
:101AA00009D049F65823C0F600031A6849F65C23AA
:101AB000C0F60003136049F65823C0F600031B6804
:101AC00093F84030002B09D049F65823C0F60003A4
:101AD0001A6849F65C23C0F60003136049F65823E0
:101AE000C0F600031B689A6A02F101029A629B6ABF
:101AF000002B08D149F65823C0F600031B68DA6AA8
:101B000002F10102DA6249F65823C0F600031E68AA
:101B100049F65823C0F600031B689B6A1846FEF777
:101B200049FC49F65823C0F600031B68D3E90C238F
:101B3000FEF7B6FC02460B4614461D4649F65823EE
:101B4000C0F600031B68DB6A1846FEF733FC49F653
:101B50005823C0F600031B68D3E90C23FEF7A0FC52
:101B600002460B46104619464FF000024FF00003A4
:101B7000C4F2F013FEF794FC02460B4620462946B9
:101B8000FEF7DCFA02460B46C6E908230DB0BDE8B5
:101B9000F08F00BF0000000008B54FF0080000F013
:101BA0000DFA49F65823C0F600031B6818464FF09B
:101BB00000014FF0480207F07FFD49F65823C0F6B8
:101BC000000319684FF000024FF00003CBF6F073EA
:101BD000C1E90E2349F65823C0F6000319689CA3F7
:101BE000D3E90023C1E90C2349F65823C0F60003CA
:101BF0001A6841F2D163C9F60F23936049F658235E
:101C0000C0F600031A684EF2F223C6F25823D360DE
:101C100049F65823C0F600031A684DF27A13C2F24F
:101C20008543136149F65823C0F600031A6847F24A
:101C30005E43C3F22A33536149F65823C0F60003CA
:101C40001A6840F2E063C2F20003536040F2E063BE
:101C5000C2F2000340F2F462C2F200021A6040F2E3
:101C6000F463C2F2000349F67022C0F600021A6063
:101C700040F2F463C2F2000349F67022C0F600029B
:101C80005A6040F2F463C2F2000349F67022C0F6D3
:101C900000029A6040F2F463C2F2000349F6702237
:101CA000C0F60002DA6040F2F463C2F2000349F6C3
:101CB0007022C0F600021A6140F2F463C2F200031F
:101CC00049F67022C0F600025A6140F2F463C2F293
:101CD000000349F67022C0F600029A6140F2F463F4
:101CE000C2F2000349F67022C0F60002DA6140F247
:101CF000F463C2F2000349F67022C0F600021A62D1
:101D000040F2F463C2F2000349F67022C0F600020A
:101D10005A6240F2F463C2F2000349F67022C0F640
:101D200000029A6240F2F463C2F2000349F67022A4
:101D3000C0F60002DA6249F65823C0F600031B68B9
:101D40005A6849F65823C0F600031B6803F11803CC
:101D5000936049F65823C0F600031B685A6849F699
:101D60005823C0F600031B6803F10803536049F6CB
:101D70005823C0F600031B685A6849F65823C0F67A
:101D800000031B6803F12003D36040F6D850C2F271
:101D900000004FF000014FF0680207F08DFC40F6A4
:101DA0008860C2F200004FF000014FF0180207F007
:101DB00083FC40F22470C2F200004FF000014FF0AB
:101DC000240207F079FC49F65823C0F600031A688C
:101DD00040F22473C2F20003936140F22473C2F212
:101DE00000034FF00E021A6040F22473C2F20003A7
:101DF00040F20002C2F200025A6040F22473C2F2C2
:101E0000000340F23802C2F200029A6040F22473EA
:101E1000C2F2000340F23012C2F20002DA6040F275
:101E20002473C2F2000340F27812C2F200021A6177
:101E300009480A49FEF75EFF09480A49FEF75AFFBA
:101E4000094840F68861C2F20001FEF753FF08BD61
:101E5000000000A09999C93F380E0020980E00207C
:101E6000300E0020900E0020280E0020AFF30080DE
:101E7000704700BF00B587B04FF0400303934FF0A9
:101E800000024FF00003CDE90423039B202B0AD16D
:101E900000F01CF803461846FEF7AEFA02460B4661
:101EA000CDE904230BE04FF00003C7F6F073019374
:101EB0004FF000030093DDE90023CDE90423DDE9C1
:101EC00004231046194607B000BD00BF82B04FF092
:101ED000FF430193019B184602B0704700B587B0DD
:101EE0004FF0400303934FF000024FF00003CDE9A1
:101EF0000423039B202B0AD100F01CF8034618464C
:101F0000FEF77AFA02460B46CDE904230BE04FF0C8
:101F10000003CFF6F07301934FF000030093DDE967
:101F20000023CDE90423DDE904231046194607B058
:101F300000BD00BF82B04FF00003CFF68073019365
:101F4000019B184602B0704700B587B04FF04003C0
:101F500003934FF000024FF00003CDE90423039BED
:101F6000202B0AD100F01CF803461846FEF744FA6D
:101F700002460B46CDE904230BE04FF00003CFF6F9
:101F8000F87301934FF000030093DDE90023CDE9DE
:101F90000423DDE904231046194607B000BD00BF45
:101FA00082B04FF0000301934FF00003CFF6C073EF
:101FB0000193019B184602B0704700BF00B583B083
:101FC0000190FFF7C1FF40F6B063C2F20003C3E91E
:101FD0000001FFF7E5FF024640F6A063C2F20003EE
:101FE0001A60FFF747FF40F6A863C2F20003C3E997
:101FF0000001FFF76BFF024640F6A463C2F2000344
:102000001A60FFF76BFF40F6B863C2F20003C3E942
:102010000001FFF78FFF024640F6C063C2F20003E3
:102020001A6003B000BD00BF00B583B0CDE9000168
:1020300040F6A863C2F20003D3E90023DDE9000102
:10204000FEF796FC0346002B0CD140F6B863C2F2B3
:102050000003D3E90023DDE90001FEF789FC034614
:10206000002B02D04FF0010301E04FF000031846AF
:1020700003B000BD00B583B0CDE90001DDE900018A
:10208000DDE90023FEF774FC0346002B02D14FF07C
:10209000010301E04FF00003184603B000BD00BF8C
:1020A00000B583B0019040F25073C2F200031B6888
:1020B000019A9A4230DD40F25473C2F200031B6869
:1020C000002B0ED040F25473C2F200031B68184676
:1020D00005F082F840F25073C2F200034FF00002A4
:1020E0001A60019B184605F087F803461A4640F22D
:1020F0005473C2F200031A6040F25473C2F2000338
:102100001B68002B02D14FF0010307E040F250732F
:10211000C2F20003019A1A604FF00003184603B0A0
:1021200000BD00BF00B587B0019000914FF00003E3
:1021300002934FF0000305934FF0080303934FF011
:1021400000038DF813301BE040F24C73C2F2000321
:102150001868039A059BD11A059B019AD31802AA05
:1021600003F012FA03468DF813309DF81330002B5C
:102170000BD1029B059AD3180593059B002B06D023
:10218000059A039B9A42DFDB02E000BF00E000BF3C
:10219000029B002BD4BF00230123DBB21A46009B15
:1021A0001A709DF81330184607B000BD00B587B00F
:1021B00001904FF000038DF813304FF000030593AA
:1021C0001AE040F24C73C2F200031A6803AB1046E7
:1021D0004FF001011A4640F25D73C2F2000303F0B2
:1021E000D3F903468DF813309DF81330002B08D136
:1021F000039B059AD3180593059A019B9A42E0DB4D
:1022000000E000BF07B000BD00B587B001904FF0FF
:1022100000038DF817304FF0000304930198FFF787
:102220003FFF03468DF817309DF81730002B20D064
:102230000198FFF7BBFF22E040F24C73C2F20003AB
:102240001868019A049BD11A40F25473C2F2000339
:102250001A68049BD31803AA03F096F903468DF875
:1022600017309DF81730002B08D1039B049AD31820
:102270000493049A019B9A42DEDB00E000BF9DF8C4
:102280001730002B05D140F25473C2F200031B68D3
:1022900001E04FF00003184607B000BD00B585B05F
:1022A00001904FF00003039315E0039801F05CFCEC
:1022B00040F27073C2F200031B78002B03D0039826
:1022C000019900F0A7FB0398019901F0BDFB039B66
:1022D00003F101030393039B012BE6DD40F24873F6
:1022E000C2F200034FF000021A7040F24973C2F2CA
:1022F00000034FF000021A7040F24C73C2F2000368
:102300001B68184603F0C0F805B000BD00B585B0E5
:10231000019040F24873C2F200034FF000021A70BD
:1023200040F24973C2F200034FF000021A704FF0FE
:102330000003039307E00398019901F0A5FE039BB6
:1023400003F101030393039B012BF4DD40F24C7373
:10235000C2F200031B68184603F076F905B000BD11
:1023600000B58FB001904FF000030D934FF00003C4
:102370008DF83330019B9B681B680A930A9B5B684E
:1023800009930A9B1B6808934FF0100303934FF0C7
:102390000803049340F24C73C2F20003196803AAC5
:1023A00005AB08464FF0080103F024F903468DF809
:1023B00033309DF83330002B40F0A280059B082B72
:1023C00040F09E800A9B1B6803F108030793079B5C
:1023D0004FEA83030693069B184604F00DFF03465D
:1023E0000D930D9B002B04D14FF001038DF833307A
:1023F00086E04FF010030393069B049340F24C7366
:10240000C2F20003196803AA05AB08464FF00801A1
:1024100003F0F0F803468DF833309DF83330002B8D
:102420006ED1059B082B6BD1019B5B681A680D9BD5
:102430001A600D9B03F10403019A526852681A60F6
:102440000D9B03F10803019A526892681A600D9B74
:1024500003F10C03019A5268D2681A600D9B03F1D4
:1024600010034FF000021A600D9B03F114034FF0AC
:1024700004021A600D9B03F1180240F29023C2F28D
:1024800000031B78DBB213600D9B03F11C03089A59
:102490001A604FF000030B9311E00B9B03F108034C
:1024A0004FEA83030D9AD3180B9A4FEA82020999D7
:1024B0008A1812681A600B9B03F101030B930B9AA5
:1024C000089B9A42E9DB40F24C73C2F200031A689F
:1024D00005AB104606990D9A03F08CF803468DF86B
:1024E00033309DF83330002B0AD1059A069B9A426F
:1024F00006D140F24973C2F200034FF001021A7094
:102500000D9804F069FE9DF8333018460FB000BDF9
:1025100000B587B0034600918DF807304FF00003F7
:102520008DF817309DF807300293009B039340F21B
:102530004C73C2F20003196802AA04AB08464FF0BC
:10254000080103F057F803468DF817309DF817304F
:10255000002B02D1049B082B04D04FF001038DF80F
:10256000173000BF9DF81730184607B000BD00BFF8
:1025700000B585B0019000914FF000038DF80F3049
:1025800040F24C73C2F200031A6802AB1046009985
:10259000019A03F02FF803468DF80F309DF80F30A5
:1025A000002B03D1029A009B9A4204D04FF0010302
:1025B0008DF80F3000BF9DF80F30184605B000BDF4
:1025C00000B587B00346029101928DF80F304FF0AD
:1025D00000038DF817309DF80F3018460299FFF769
:1025E00097FF03468DF817309DF81730002B0DD15B
:1025F000019B002B0BD001980299FFF7B9FF03460E
:102600008DF817309DF81730002B00E000BF9DF8C3
:102610001730184607B000BD00B587B00B460092D2
:1026200002468DF807208DF806304FF000038DF834
:1026300017309DF806300393009B04939DF8072004
:1026400003AB10464FF008011A46FFF7B9FF0346E7
:102650008DF817309DF81730184607B000BD00BF41
:1026600000B587B0019000914FF000038DF817304E
:102670000098FFF7C9FD0490049B002B0FD14FF089
:102680000103039303AB4FF012004FF004011A460D
:10269000FFF796FF4FF001038DF8173014E0019813
:1026A000049900F0E1FE4FF00003039303AB4FF0F9
:1026B00012004FF004011A46FFF782FF03468DF81F
:1026C00017309DF81730002B9DF81730184607B0CB
:1026D00000BD00BF00B593B001904FF000038DF82E
:1026E0003F30019B9B681B680E930E9B1B690D93EB
:1026F0000D9B002B7CD00D9B1B680C930E9B5B6885
:102700000B934FF0000310934FF00003119323E05D
:102710000D9B5A68119B4FEA0313D3185B680A9309
:102720000A9B4FEA83030B9AD3181B6809930D9BEE
:102730005A68119B4FEA0313D318DB680893099B6F
:10274000089A02FB03F30793109A079BD318109380
:10275000119B03F101031193119A0C9B9A42D7DB51
:102760004FF013001099FFF7D3FE03468DF83F306A
:102770009DF83F30002B48D14FF00003119332E019
:102780000D9B5A68119B4FEA0313D3181B680693DD
:102790000D9B5A68119B4FEA0313D3185B6805938E
:1027A000059B4FEA83030B9AD3181B6804930D9B78
:1027B0005A68119B4FEA0313D318DB680393049BF9
:1027C000039A02FB03F3029306980299FFF7D0FEE7
:1027D00003468DF83F309DF83F30002B17D1119BF9
:1027E00003F101031193119A0C9B9A42C8DB0FE08D
:1027F0004FF013004FF00001FFF78AFE03468DF8FB
:102800003F309DF83F30002B02E000BF00E000BFEA
:102810009DF83F30184613B000BD00BF00B589B029
:1028200002910192009303468DF80F304FF00003A0
:102830008DF81F300198FFF7E7FC0690069B002BF0
:102840000BD19DF80F3018464FF001014FF0FF32C9
:10285000FFF7E2FE4FF0010344E005AB184606998E
:102860004FF0040204F0DDFB9DF80F301B2B0ED05F
:102870001C2B18D1069B03F10402059B02981146FC
:102880001A4601F09FFA03468DF81F300CE0069BB4
:1028900003F10402059B0298009901F095F90346A3
:1028A0008DF81F3000E000BF9DF81F30002B0BD0CB
:1028B000059B9DF80F2010464FF001011A46FFF7C7
:1028C000ABFE9DF81F300DE0059B9DF80F201046D4
:1028D0004FF000011A46FFF79FFE03468DF81F30A8
:1028E0009DF81F30184609B000BD00BF00B589B083
:1028F0000346029101928DF80F304FF000038DF8DE
:102900001F300298FFF780FC0690069B002B0BD12E
:102910009DF80F3018464FF001014FF0FF32FFF7DE
:102920007BFE4FF0010326E005AB184606994FF0F9
:10293000040204F076FB9DF80F301D2B06D01E2BF1
:102940000AD1059B184601F0BBFB06E0059B184623
:10295000019901F03FFB00E000BF059B9DF80F20AF
:1029600010464FF000011A46FFF756FE03468DF859
:102970001F309DF81F30184609B000BD00B585B066
:10298000019000914FF00003039302F0F3FD024623
:1029900040F24C73C2F200031A6040F24C73C2F270
:1029A00000031B68002B05D149F67423C0F6000311
:1029B00003930CE040F24C73C2F200031B6818460C
:1029C0000199009A02F07AFD0390039B002B039B70
:1029D000002B0ED040F24C73C2F200031B68184665
:1029E00002F0CEFD40F24C73C2F200034FF0000241
:1029F0001A60039B184605B000BD00BF08B540F241
:102A00004C73C2F200031B68184602F0ABFD03468C
:102A1000184608BD00B589B0019000914FF0000341
:102A20008DF81B3040F24873C2F200031B78002B74
:102A30004ED002AB18460199009A02F0A3F843E089
:102A40004FF00003079335E0039A079B4FEA031307
:102A5000D3180593059B5A68059B1B6810461946B9
:102A6000FFF786FD03468DF81B309DF81B30002BC9
:102A700030D1059B9B68002B0EDD059BDA68059B1A
:102A80009B6810461946FFF773FD03468DF81B300F
:102A90009DF81B30002B1FD1049A079B4FEA83033C
:102AA000D3181B681846019901F040FB079B03F1FE
:102AB00001030793029A079B9A42C5DC02AB1846B2
:102AC0000199009A02F05EF8029B002BB8DC04E04A
:102AD00000BF02E000BF00E000BF9DF81B30002BEC
:102AE00002D00098FFF712FC09B000BD00B585B018
:102AF00001904FF00003039307E003980199FFF75B
:102B000089FF039B03F101030393039B012BF4DD76
:102B100005B000BD00B583B04FF000038DF8033061
:102B20009DF80330002B1DD140F24C73C2F200031C
:102B30001B68184602F08AFC03468DF803309DF8A6
:102B40000330002B10D14FF00003019306E00198F1
:102B500000F038FF019B03F101030193019B012B5E
:102B6000F5DD02E000BF00E000BF9DF8033018462D
:102B700003B000BD00B583B00190009140F24C73EA
:102B8000C2F200031B6818460199009A02F056FD34
:102B900003B000BD00B58DB00590049103924FF0D5
:102BA00000038DF82F304FF000038DF82E3040F2E7
:102BB0004873C2F200031B78002B13D140F24C7310
:102BC000C2F200031B68184640F24871C2F20001CD
:102BD00002F048FC03468DF82F309DF82F30002B73
:102BE00040F0118140F24873C2F200031B78002BC1
:102BF00000F00B8109AA0DF1230310461946FFF7D7
:102C000091FA03468DF82F309DF82F30002B04D019
:102C10004FF001038DF82E3000E19DF82330002B9A
:102C200000F0F58040F24973C2F200031B78002BDC
:102C300002D14FF000030993099B0F2B00F2E980AA
:102C400001A252F823F000BF212D0008872D0008B3
:102C5000AD2D0008132E0008352D0008732D000837
:102C6000CF2C0008F72C0008B32C0008EB2D00082F
:102C7000B52D0008E12D0008132E0008132E0008C2
:102C8000132E0008892C0008059BDB68D3E900237C
:102C9000CDE9062306AB4FF015004FF008011A46A8
:102CA000FFF78EFC03468DF82F309DF82F30002B58
:102CB000B4E00A9B4FF01D001946049AFFF716FE78
:102CC00003468DF82F309DF82F30002BA6E00A9B8D
:102CD0001A4640F25873C2F2000300934FF01B00F3
:102CE0000599049BFFF79AFD03468DF82F309DF858
:102CF0002F30002B92E00A9B1A4640F25C73C2F21E
:102D0000000300934FF01C0005994FF0FF33FFF7CD
:102D100085FD03468DF82F309DF82F30002B7DE088
:102D20000598FFF71DFB03468DF82F309DF82F30D7
:102D3000002B73E00A9B002B07D140F24A73C2F2CA
:102D400000034FF001021A7068E00A9B05981946CB
:102D5000FFF786FC03468DF82F309DF82F30002BAF
:102D600059D140F24A73C2F200034FF001021A70C7
:102D700054E00598FFF7AEFC03468DF82F309DF820
:102D80002F30002B4AE04FF011004FF000014FF0C0
:102D90000002FFF715FC03468DF82F309DF82F3009
:102DA000002B3AD10498FFF779FA37E00498FFF73F
:102DB000ADFA33E040F26073C2F200034FF001025B
:102DC0001A604FF016004FF000014FF00002FFF7BD
:102DD000F7FB03468DF82F309DF82F30002B1DE0B8
:102DE000039B4FF001021A7018E00A9B4FF01E007F
:102DF0001946049AFFF77AFD03468DF82F309DF8A7
:102E00002F30002B0AE000BF08E000BF06E000BF43
:102E100004E000BF02E000BF00E000BF9DF82F30DB
:102E2000002B06D09DF82E30002B02D00498FFF71F
:102E30006DFA0DB000BD00BF00B583B001900091E8
:102E4000019800F091FE01980099FFF7E3FD0198C9
:102E5000009900F0F9FD40F25473C2F200031B68C0
:102E6000002B0ED040F25473C2F200031B681846C8
:102E700004F0B2F940F25473C2F200034FF00002C2
:102E80001A6003B000BD00BF00B585B001904FF0DF
:102E900000038DF80B304FF00003039307E0039815
:102EA0000199FFF7C9FF039B03F101030393039B00
:102EB000012BF4DD40F24973C2F200031B78002BB2
:102EC00011D04FF014004FF000014FF00002FFF757
:102ED00077FB03468DF80B3040F24973C2F20003D2
:102EE0004FF000021A7040F24873C2F200031B78E0
:102EF000002B0DD040F24873C2F200034FF00002E5
:102F00001A7040F29023C2F200034FF001021A70CF
:102F100040F24C73C2F200031B68184602F0BCFA80
:102F200040F24C73C2F200031B68184602F028FB03
:102F30009DF80B30184605B000BD00BF00B585B048
:102F400001904FF00003039307E00398019901F00B
:102F5000DFFC039B03F101030393039B012BF4DDCF
:102F600005B000BD00B583B04FF00003019306E04B
:102F7000019801F027FD019B03F101030193019BDF
:102F8000012BF5DD03B000BD00B589B00590CDE99A
:102F900002234FF0000307930AE0079B0093059874
:102FA000DDE9022301F082FA079B03F10103079395
:102FB000079B012BF1DD09B000BD00BF00B585B056
:102FC0000390029101920FE04FF000004BF6D80100
:102FD000C0F20501FFF7CEFD03980299019AFFF7B1
:102FE000D9FD0298FFF782FD40F29023C2F2000360
:102FF0001B78DBB2042B0AD140F26073C2F20003EB
:103000001B68002B03D1019B1B78002BDCD040F206
:103010006073C2F200034FF000021A6005B000BDF9
:1030200000B585B0039002910192FFF7E7FC0346DB
:10303000002B1BD00FE04FF000004BF6D801C0F280
:103040000501FFF797FD03980299019AFFF7A2FD8A
:103050000298FFF74BFD40F26073C2F200031B6859
:10306000002B03D1019B1B78002BE4D040F290236E
:10307000C2F200031B78DBB2042B06D040F290238F
:10308000C2F200034FF003021A7005B000BD00BF8A
:1030900000B585B003900291019240F29023C2F2F4
:1030A00000031B78DBB2042B07D003980299019A26
:1030B000FFF770FD0298FFF719FD05B000BD00BFD6
:1030C00000B585B00390CDE900230398DDE9002326
:1030D000FFF75AFF05B000BD08B5FFF743FF08BD75
:1030E00000B583B001900198FFF728FF03B000BD41
:1030F00000B583B00190FFF70DFD03B000BD00BF28
:1031000000B583B001900198FFF7BEFE03B000BD8B
:1031100000B585B00390029101924FF000004FF08E
:103120000001FFF72BFC05B000BD00BF00B583B068
:10313000019040F29823C2F20003D3E90023104625
:1031400019464FF000024FF00003FDF72FFC034635
:10315000002B10D140F29823C2F20003D3E9000102
:1031600049F6B023C0F60003D3E90023FDF700FCC5
:103170000346002B08D040F29823C2F20003D3E9A3
:1031800000230199C1E9002303B000BD00B583B05D
:1031900001900198FFF7CAFF03B000BD704700BF60
:1031A00000B58BB00390029101924FF00003099398
:1031B000029B08934FF0FF3307931AE0019A079B95
:1031C0009A4238BF1346069305AB03980899069AAE
:1031D00002F0C8FF0990099BB3F1FF3F01D1099BA1
:1031E0000BE0059B019AD31A0193059B089AD3180B
:1031F0000893019B002BE1D1099B18460BB000BD41
:1032000000B58BB00390029101924FF00003099337
:10321000029B08934FF0FF3307931AE0019A079B34
:103220009A4238BF1346069305AB03980899069A4D
:1032300002F0C2FF0990099BB3F1FF3F01D1099B46
:103240000BE0059B019AD31A0193059B089AD318AA
:103250000893019B002BE1D1099B18460BB000BDE0
:10326000704700BF00B583B0019003F0C5F803B00C
:1032700000BD00BF704700BF08B543F26520C0F62F
:1032800000004FF400714FF000024FF0020304F011
:10329000D3FE08BD08B540F26873C2F200031A6895
:1032A00040F26C73C2F200031A6003F023F9034684
:1032B000002B13D003F016F90346002B07D040F281
:1032C0006873C2F200034FF001021A6006E040F298
:1032D0006873C2F200034FF000021A6040F2687394
:1032E000C2F200031A6840F26C73C2F200031B685A
:1032F0009A4201D003F08FF908BD00BF00B585B038
:103300000190019B1B68039303F06EF9024640F2A3
:103310006473C2F200031A6040F6EC60C2F200006F
:1033200000F094F8FFF7B6FF03984FF00001C4F2E5
:103330007A41FDF76FFB03461846FDF7BBFC0346D9
:1033400040F26470C2F20000194600F04DF8E3E765
:1033500000B585B0019000914FF00503039340F64E
:10336000EC60C2F2000000F049F840F6EC60C2F2F6
:10337000000000F05BF840F6E860C2F2000000F0E8
:103380003DF840F6E860C2F2000000F04FF846F267
:103390000D20C0F600004FF488614FF00002039B3F
:1033A00000F036F846F29D30C0F600004FF4886118
:1033B0004FF000024FF0000300F02AF801AB43F297
:1033C000FD20C0F600004FF488611A46039B00F010
:1033D0001FF805B000BD00BF82B0019000914FF012
:1033E0000103184602B0704700B583B00190009108
:1033F0000198009905F00CF803B000BD00B583B04A
:10340000019004F066F80246019B1A6003B000BD0B
:1034100000B585B003900291019200930398029940
:10342000019A009B04F008FE05B000BD00B585B010
:103430000190019B1B6818464FF0FF3104F059F8CA
:1034400003460393039B184605B000BD00B585B045
:103450000190019B1B68184604F036F8034603935D
:10346000039B184605B000BD00B597B001900091D0
:10347000009B14934FF0000313934FF0010312933A
:103480004FF0020311934FF0030310934FF010031A
:103490000F93019B9B681B680E930E9B1B690D93FA
:1034A0000E9B5B680C9306AB184614994FF0040210
:1034B00003F0B7FD149B03F1040314934FF00003D2
:1034C000159363E00F9B02AA104614991A4603F065
:1034D000A8FD0F9B149AD31814930D9B5A68139B45
:1034E0004FEA830316A9CB1853F8503C4FEA031355
:1034F000D3181B680B930D9B5A68139B4FEA8303E9
:1035000016A9CB1853F8503C4FEA0313D3189B6805
:103510000A93109B4FEA830316AAD31853F8503C22
:103520004FEA83030C9AD3181A680A9B002B02D027
:103530004FF0020301E04FF0010303FB02F3099394
:10354000119B4FEA830316A9CB1853F8503C099AF4
:1035500002FB03F30893129B4FEA830316AAD318C6
:1035600053F8503C099A02FB03F30B9AD3180793C4
:10357000089B079814991A4603F053FD089B149A68
:10358000D3181493159B03F101031593069B159A09
:103590009A4297DB17B000BD90B003900291019260
:1035A000039B9B681B680F930F9BDB680E930F9B1D
:1035B0005B680D934FF000030C934FF001030B93E6
:1035C0004FF002030A934FF0030309930E9B5A68CE
:1035D0000C9B4FEA83030299CB181B684FEA031335
:1035E000D3181B6808930E9B5A680C9B4FEA830301
:1035F0000299CB181B684FEA0313D3189B680793F3
:10360000099B4FEA8303029AD3181B684FEA83038E
:103610000D9AD3181A68079B002B02D04FF00203B3
:1036200001E04FF0010303FB02F306930A9B4FEA0C
:103630008303029AD3181B68069A02FB03F30593CF
:103640000B9B4FEA8303029AD3181B68069A02FB6E
:1036500003F30493049B089AD218019B1A60019B00
:10366000059A5A6010B0704710B592B0039002915D
:1036700001920093009B1B6810934FF000038DF89C
:103680003F300AAB184610994FF0040203F0C9FC12
:10369000109B03F104031093039B1A680A9B4FEAE3
:1036A0008303D3181A68019B1A600BAB1846109954
:1036B0004FF0040203F0B5FC109B03F104031093D8
:1036C000029B4FEA8303184603F096FD03461A4611
:1036D000019B5A60019B5A68029B4FEA8303104684
:1036E0004FF000011A4605F0E7FF019B5B68002BD5
:1036F00004D14FF001038DF83F309EE04FF00003FE
:10370000119395E009AB184610994FF0040203F0AD
:1037100088FC109B03F104031093019B5A68099BDA
:103720004FEA8303D4184FF00C0003F065FD034605
:103730002360019B5A68099B4FEA8303D3181B68D7
:1037400018464FF000014FF00C0205F0B5FF019B49
:103750005A68099B4FEA8303D3181B68002B04D1D6
:103760004FF001038DF83F3067E0019B5A68099BD9
:103770004FEA8303D3181B680D930D9B18461099CD
:103780004FF0040203F04DFC109B03F1040310936F
:103790000D9B1B684FEAC303184603F02DFD03463B
:1037A0001A460D9B5A600D9B5A680D9B1B684FEA89
:1037B000C30310464FF000011A4605F07DFF0D9B34
:1037C0005B68002B04D14FF001038DF83F3034E0EB
:1037D0004FF000030E9322E00D9B5A680E9B4FEAB8
:1037E000C303D3180C9305AB184610994FF0100281
:1037F00003F017FC109B03F11003109305AB039823
:1038000019460C9AFFF7C8FE0D9B9A680C9B5B68E3
:10381000D2180D9B9A600E9B03F101030E930D9B32
:103820001A680E9B9A42D7DC119B03F10103119396
:103830000B9B119A9A42FFF665AF009B109A1A6093
:103840009DF83F30184612B010BD00BF00B585B0DE
:10385000019000914FF000038DF80F30009B002B7A
:1038600004DA4FF001038DF80F302AE0019B4FF08E
:1038700001021A60009B002B10DD009B184603F02C
:10388000BBFC03461A46019B9A60019B9B68002B78
:1038900008D14FF001038DF80F3012E0019B4FF07B
:1038A00000029A60019B009A5A60019B9A68019BF2
:1038B000DA60019B9A68019B1A61019B4FF000023C
:1038C0005A619DF80F30184605B000BD00B587B0AD
:1038D0000190019A13464FEAC3039B1A4FEA031360
:1038E00040F27872C2F200029B180593059B03F127
:1038F00020030493049B03F130030393039B5B6851
:10390000002B08D0039B5B68184603F065FC039B03
:103910004FF000025A60049BDB6B002B08D0049B25
:10392000DB6B184603F058FC049B4FF00002DA638F
:10393000049B4FF000021A70049B4FF000029A6043
:10394000049B4FF00002DA60049B4FF000021A6102
:10395000049B4FF001025A61049B4FF000029A61F0
:1039600004994FF000024FF00003C1E90823049BC3
:103970004FF000029A62049B4FF00002DA62049B4F
:103980004FF000021A63049B4FF000025A63049B3D
:103990004FF000029A63049B4FF00002DA63049B2D
:1039A0004FF000021A64049B4FF000025A64049B1B
:1039B0004FF000029A64049B4FF00002DA6407B0F3
:1039C00000BD00BF00B585B00190019A13464FEAD3
:1039D000C3039B1A4FEA031340F27872C2F200024B
:1039E0009B18039340F2A023C2F20003019A9B1894
:1039F0001B78002B0FD003984FF000014FF070029E
:103A000005F05AFE40F2A023C2F20003019A9B186F
:103A10004FF000021A70039B4FF000025A60039BA4
:103A20004FF000029A60039B4FF00002DA60039BA4
:103A30004FF000029A61039B4FF000025A61019817
:103A4000FFF744FF05B000BD00B587B001900091BD
:103A5000019A13464FEAC3039B1A4FEA031340F23D
:103A60007872C2F200029B180393039B5B68002BE1
:103A700077D04FF00003059335E0039B9A68059BD0
:103A80004FEAC303D3185B6802934FF0000304931B
:103A90001EE0049B4FEA8303029AD3181B68002B95
:103AA00012D0049B4FEA8303029AD3181B685B6809
:103AB000184603F091FB049B4FEA8303029AD31844
:103AC0001B68184603F088FB049B03F10103049371
:103AD000049A009B9A42DCDB029803F07DFB059B75
:103AE00003F101030593039B5A68059B9A42C4DCCA
:103AF000039B9B68184603F06FFB039BDB68002B5E
:103B00001ED04FF00003059311E0039BD968059A7E
:103B100013464FEAC3039B1A4FEA8303CB189B68F3
:103B2000184603F059FB059B03F101030593059A21
:103B3000009B9A42E9DB039BDB68184603F04CFBD1
:103B4000039B9B69184603F047FB039B5B69184680
:103B500003F042FB0198FFF7B9FE0198FFF732FF2F
:103B600000E000BF07B000BD84B00190019A134689
:103B70004FEAC3039B1A4FEA031340F27872C2F272
:103B800000029B180393039B93F82030052B19D850
:103B900001A252F823F000BFC53B0008C53B000856
:103BA000C53B0008C53B0008B13B0008B13B00081D
:103BB000039B4FF0050283F82020039B4FF0FF3258
:103BC000DA6200BF04B0704700B58BB00390029179
:103BD000019200934FF000038DF81F30019B059375
:103BE000009A13464FEAC3039B1A4FEA031340F2AD
:103BF0007872C2F200029B180693069B009A1A6024
:103C000000980299FFF720FF069B03F10402059B31
:103C1000104619464FF0040203F003FA059B03F126
:103C200004030593069B5B684FEAC303184603F041
:103C3000E3FA03461A46069B9A60069B9A68069B1F
:103C40005B684FEAC30310464FF000011A4605F0C7
:103C500033FD069B9B68002B04D14FF001038DF8C8
:103C60001F30A1E04FF00003089316E0069B9A680E
:103C7000089B4FEAC303D21805AB03980299FFF7DC
:103C8000F3FC03468DF81F309DF81F30002B40F0E9
:103C90008A80089B03F101030893069B5A68089BDE
:103CA0009A42E3DC029A13464FEAC3039B1A4FEA97
:103CB0008303184603F0A0FA03461A46069BDA600F
:103CC000069BD968029A13464FEAC3039B1A4FEA30
:103CD000830308464FF000011A4605F0EDFC4FF053
:103CE000000309934FF0000308932EE0059B04AAFC
:103CF000104619464FF0040203F093F9059B03F1B7
:103D000004030593069BD968089A13464FEAC30338
:103D10009B1A4FEA8303CA18049B10461946FFF703
:103D200095FD03468DF81F309DF81F30002B3BD1C9
:103D3000049B002B0CBF00230123DBB2099AD3188C
:103D40000993089B03F101030893089A029B9A4286
:103D5000CCDB069B4FF000021A61099B4FEA03136C
:103D6000184603F049FA03461A46069B9A61069BD9
:103D70009B69002B04D14FF001038DF81F3013E035
:103D8000099B4FEA8303184603F036FA03461A46A6
:103D9000069B5A61069B5B69002B05D14FF001031E
:103DA0008DF81F3000E000BF9DF81F30002B03D0BE
:103DB00000980299FFF748FE9DF81F3018460BB097
:103DC00000BD00BF00B593B00390029101924FF087
:103DD00000038DF84730029B1093019A13464FEA77
:103DE000C3039B1A4FEA031303F1200240F27873D6
:103DF000C2F20003D3180E930AAB184610994FF085
:103E0000040203F00EF9109B03F1040310930A9AC5
:103E10000E9B5A600E9B03F10803184610994FF051
:103E2000040203F0FEF8109B03F1040310930E9BB1
:103E300003F10C03184610994FF0040203F0F1F857
:103E4000109B03F1040310930E9B03F1100318461B
:103E500010994FF0040203F0E4F8109B03F10403FF
:103E600010930E9B03F13003184610994FF0040293
:103E700003F0D7F8109B03F1040310930E9B1B6B08
:103E80000D930D9B002B54DD0E9B03F130030C931F
:103E90000D9B4FEAC303184603F0AEF903461A46DA
:103EA0000C9B5A600C9B5B68002B04D14FF0010304
:103EB0008DF8473082E04FF000030F9322E00C9B17
:103EC0005A680F9B4FEAC303D3180B9305AB1846F0
:103ED00010994FF0100203F0A4F8109B03F11003A7
:103EE000109305AB039819460B9AFFF755FB0C9BF3
:103EF0009A680B9B5B68D2180C9B9A600F9B03F12E
:103F000001030F930C9B1A680F9B9A42D7DC0C9B02
:103F10009B68184603F070F903461A460E9BDA6355
:103F20000E9BDB6B002B04D14FF001038DF8473063
:103F300044E009AB184610994FF0040203F071F801
:103F4000109B03F104031093099B002B02D0099BE3
:103F5000022B02D14FF0010301E04FF000030E9A53
:103F60005361099B012B02D0099B022B02D14FF018
:103F7000010301E04FF000030E9A93610E9B03F1E1
:103F80002003184610994FF0080203F04AF8109BDE
:103F900003F1080310930E9B1B69002B0ADA0E9B9A
:103FA0001B69C3F100020E9B5A640E9B4FF0000286
:103FB0001A6103E00E9B4FF000025A649DF84730EF
:103FC000002B02D00198FFF781FC9DF8473018467E
:103FD00013B000BD86B001900091019A13464FEADC
:103FE000C3039B1A4FEA031340F27872C2F2000235
:103FF0009B18049340F27073C2F200034FF000026A
:104000001A70049B4FF00002DA644FF0000305932E
:1040100022E0049BD968059A13464FEAC3039B1A12
:104020004FEA8303CB180393039B5B68002B0FDDE0
:10403000039B9A68039BDA60039B9A68039B1A614F
:10404000039B4FF000025A61039B4FF001021A607C
:10405000059B03F101030593059A009B9A42D8DB67
:10406000049B4FF000029A64049B4FF000021A6612
:10407000049B4FF000029A66049B4FF0020283F803
:10408000202006B0704700BF00B585B001900091B8
:10409000019A13464FEAC3039B1A4FEA031340F2F7
:1040A0007872C2F200029B180393039B4FF0000248
:1040B00083F8202001980099FFF7C6FC05B000BDE9
:1040C00084B00190019A13464FEAC3039B1A4FEA4A
:1040D000031340F27872C2F200029B180393039B11
:1040E00093F82030052B1ED801A252F823F000BF10
:1040F000274100080941000809410008094100085A
:10410000094100081D410008039B4FF0FF32DA62AD
:10411000039B4FF0050283F8202004E0039B4FF03F
:10412000FF32DA6200BF04B0704700BF84B0019074
:104130000091009A13464FEAC3039B1A4FEA0313F8
:1041400040F27872C2F200029B180393039BD96875
:10415000019A13464FEAC3039B1A4FEA8303CB1815
:10416000029340F27073C2F200034FF001021A7022
:10417000029B5A69029B1A61029B1A69029BDB68C7
:104180009A4214BF00230123DBB21A46029B1A6035
:1041900004B0704788B003900291019200934FF0F1
:1041A00000038DF81F30039B9A68039B5B68D3184C
:1041B0000693019B1A68039B1B699A4203D8039BD1
:1041C0001B68002B54D0069A019B1B68D21A039BD4
:1041D0001B691946039B9B68CB1AD3180593059A54
:1041E000029B9A4204DA4FF001038DF81F3064E01D
:1041F000019B1A68029BD218069B9A4215D2009B1B
:10420000029A1A60019B1A68009B5A60009B4FF04B
:1042100000029A60009B4FF00002DA60019B1A686E
:10422000029BD218019B1A6047E0069A019B1B680B
:10423000D21A009B1A60019B1A68009B5A60009B6F
:104240001B68029AD21A009B9A60009B9B68002B05
:1042500002DD039B9B6801E04FF00003009AD360EE
:10426000039B9A68009B9B68D218019B1A6024E00C
:10427000039B1B691A46019B1B68D31A0593059A79
:10428000029B9A4204DA4FF001038DF81F3014E0CC
:10429000009B029A1A60019B1A68009B5A60009B5F
:1042A0004FF000029A60009B4FF00002DA60019B21
:1042B0001A68029BD218019B1A609DF81F3018469D
:1042C00008B0704700B58FB00190019A13464FEACD
:1042D000C3039B1A4FEA031340F27872C2F2000242
:1042E0009B180A930A9B03F120030993099BDB6B3C
:1042F0000893089B0C934FF000030D93C6E0099BB5
:104300005A6B0D9B4FEAC303D3180793079B5B6857
:104310004FEAD3030693099B1B6C002B00F0A3808C
:10432000099BD3E90823CDE90423079B1B6803936A
:104330004FF000030B9391E0099B5B69002B42D087
:104340000B9B4FEAC303039AD318D3E9002310460B
:104350001946DDE90423FCF729FB0346002B0FD0A7
:104360000B9B4FEAC3030C9AD318D3E900231046E2
:104370001946DDE90423FCF705FB0346002B1FD19A
:104380000B9B4FEAC303039AD318D3E900231046CB
:104390001946DDE90423FCF713FB0346002B12D07A
:1043A0000B9B4FEAC3030C9AD318D3E900231046A2
:1043B0001946DDE90423FCF7DBFA0346002B02D0A3
:1043C0004FF001036EE0099B9B69002B42D00B9BD1
:1043D0004FEAC303039AD318D3E9002310461946C2
:1043E000DDE90423FCF7CEFA0346002B0FD00B9B2C
:1043F0004FEAC3030C9AD318D3E900231046194699
:10440000DDE90423FCF7D2FA0346002B1FD10B9BF6
:104410004FEAC303039AD318D3E900231046194681
:10442000DDE90423FCF7A4FA0346002B12D00B9B12
:104430004FEAC3030C9AD318D3E900231046194658
:10444000DDE90423FCF7BCFA0346002B02D04FF051
:10445000010327E00B9B03F101030B930B9A069BCF
:104460009A42FFF669AF079B1A68079B5B680C9836
:1044700011461A4602F0D5FD069B4FEAC3030C9A7B
:10448000D3180C930D9B03F101030D93099B1A6B39
:104490000D9B9A423FF733AF099B4FF001021A641C
:1044A0004FF0000318460FB000BD00BF00B5ABB021
:1044B0000390CDE900232C9A13464FEAC3039B1ABD
:1044C0004FEA031340F27872C2F200029B1827935E
:1044D0004FF000032993279B03F120032693279B8A
:1044E000D968039A13464FEAC3039B1A4FEA830322
:1044F000CB182593269B1B78022B28D1269B1B6B60
:10450000002B04D1269B4FF004021A701FE0269B5B
:104510005A68039B9A421AD12C98FFF7D3FE0346A0
:10452000002B14D0269B1B69002B08D1269B4FF033
:1045300004021A70269B9A6C269B9A6207E0269BBF
:104540004FF003021A70269B4FF001029A62269BDD
:104550001B78022B06D1269B5B6C002B02DD4FF0F3
:10456000010301E04FF000032493269B1B78042BEA
:1045700003D0249B002B00F0BB81259B5B68002BA4
:1045800000F0B681259BDB680A934FF0000323936C
:104590004FF0010322934FF0020321934FF00303E6
:1045A00020934FF004031F934FF0000305934FF047
:1045B000000306934FF0000307934FF000030893A6
:1045C0004FF0000309931F9B4FEA83032AA9CB18DE
:1045D0002C9A43F8942C249B002B36D0269B9A6C63
:1045E000269B5B6C9A4230D1259B9A68259B5B6821
:1045F000D3181E93259B1B6903F104031D9304AB81
:1046000018461D994FF0040202F00BFD049B03F1C4
:1046100008030493259B1A69049BD218259B1A61F1
:10462000259B1B691A461E9BD31A1C931C9B002BAF
:1046300005DB259B9A681C9BD218259B1A61269B3B
:104640009B6C03F1FF32269B9A644FF014031B937B
:104650000AAA0BAB25981B99FFF79CFD03462993EB
:10466000299B002B40F044811B9BA3F108031B9363
:10467000229B4FEA83032AAAD31853F8942C1B9B3E
:10468000D218229B4FEA83032AA9CB1843F8942C13
:104690000AAA0FAB25984FF00801FFF77BFD0346F0
:1046A0002993299B002B40F02381229B4FEA83030F
:1046B0002AAAD31853F8943C03F108031A46229B04
:1046C0004FEA83032AA9CB1843F8942C10990F9B27
:1046D0006A46084611461A4602F0A3FC129B002BBC
:1046E0000AD00F9B6A46D3181A93129A119B104650
:1046F0001A991A4602F095FC4FF000031393B1E0AB
:10470000279B9A68139B4FEAC303D3181993199BED
:104710001B681B78002B00F0A180199B1B681B787D
:104720005BB2032B00F09A80199B5A68039B4FEAF7
:104730008303D3181B681893189B002B00F08E80FE
:10474000219B4FEA83032AAAD31853F8943C03F120
:104750000102219B4FEA83032AA9CB1843F8942C2A
:104760004FF004031B930AAA0FAB25981B99FFF780
:1047700011FD03462993299B002B40F0B980229B11
:104780004FEA83032AAAD31853F8942C1B9BD21800
:10479000229B4FEA83032AA9CB1843F8942C109943
:1047A0000F9B13AA084611461A4602F03AFC129BC8
:1047B000002B0AD00F9B13AAD3181793129A119BA0
:1047C000104617991A4602F02CFC4FF0000328936C
:1047D0003FE0189B5A68289B4FEAC303D3181693EF
:1047E000169B59680AAA0FAB2598FFF7D3FC03461E
:1047F0002993299B002B7BD1229B4FEA83032AAA72
:10480000D31853F8942C169B5B68D218229B4FEA5E
:1048100083032AA9CB1843F8942C1099169B1A6885
:104820000F9B084611461A4602F0FBFB129B002B19
:104830000BD0169B1A680F9BD3181593129A119BD5
:10484000104615991A4602F0ECFB289B03F1010370
:104850002893189B1A68289B9A42BADC139B03F191
:1048600001031393279B5A68139B9A423FF748AF63
:10487000219B4FEA83032AAAD31853F8943C002BB8
:1048800036D0239B4FEA83032AA9CB184FF01A0294
:1048900043F8942C209B4FEA83032AAAD318039A47
:1048A00043F8942C0C990B9B05AA084611461A460E
:1048B00002F0B7FB0E9B002B0AD00B9B05AAD31866
:1048C00014930E9A0D9B104614991A4602F0A9FBF8
:1048D0000A9A259BDA60259B4FF000021A60249B00
:1048E000002B05D0269B9B6C03F10102269B9A644A
:1048F000249B002B0AD1299B002B07D0269B4FF02D
:104900000102DA62269B4FF005021A702BB000BD3F
:1049100000B585B001900091019A13464FEAC30398
:104920009B1A4FEA031340F27872C2F200029B18FE
:104930000393039B03F120030293029B1B78002B3C
:104940003AD0029B1B78012B12D1029B9B6A029AE0
:10495000D268934214BF00220122D2B203F10101B6
:10496000029B9962002A29D001980099FFF732FB37
:10497000029B1B78032B22D1029B9B6A029A12692D
:104980009342B4BF00220122D2B203F10101029B83
:104990009962002A13D0029B9A6C029B9A62029B36
:1049A0004FF004021A70029B5B6C002B07DD029B28
:1049B0004FF00102DA6402E000BF00E000BF05B082
:1049C00000BD00BF84B00190019A13464FEAC303B3
:1049D0009B1A4FEA031340F27872C2F200029B184E
:1049E0000393039B03F120030293029B1B78002B8C
:1049F00014D0029B1B78042B11D1029B9B6A03F1FC
:104A00000102029B9A62029B9A6A029B9B689A42ED
:104A100005D1029B4FF005021A7000E000BF04B000
:104A2000704700BF8CB0039002910192029A134626
:104A30004FEAC3039B1A4FEA031340F27872C2F2A3
:104A400000029B180A930A9B03F110030993099B28
:104A50004FF000021A604FF000030B935DE00A9BD9
:104A6000D9680B9A13464FEAC3039B1A4FEA830394
:104A7000CB180893089B1B68002B4AD1089B1B6925
:104A80000793089B5B680693089BDB680593099B6B
:104A90009A68099B1B684FEA0313D3180493099B78
:104AA0005A68099B1B684FEA8303D3180B9A1A6054
:104AB000099B1B6803F10102099B1A60049B079A7A
:104AC0005A60089B059A5A61059A079B9A420DD92C
:104AD000059A079BD21A049B1A60049B4FF00002B0
:104AE0009A60049B4FF00002DA6012E0089B9A681B
:104AF000069BD3181A46079BD21A049B1A60059A84
:104B0000089B9B68D21A049B9A60089B9A68049B36
:104B1000DA600B9B03F101030B930B9A019B9A4202
:104B20009DDB099B1A68039B1A60099B9A68039B8B
:104B30005A60099B5A68039B9A600CB0704700BF8B
:104B400084B001900091009A13464FEAC3039B1A68
:104B50004FEA031340F27872C2F200029B180393EB
:104B6000039B03F110030293029B4FF000021A60B3
:104B7000029B1A68019B1A60019B4FF000025A6069
:104B800004B0704700B587B0039002910192029A79
:104B900013464FEAC3039B1A4FEA031340F278729D
:104BA000C2F200029B180593059B03F120030493B6
:104BB000049B1B78042B03D0049B1B78052B3DD151
:104BC000029B03981946FFF7BBFF029B0398194607
:104BD000019AFFF727FF039B1B68002B34D1049B2E
:104BE0001B78052B30D140F27073C2F200034FF0F6
:104BF00000021A70049BDB68B3F1FF3F0DD102ABDA
:104C00004FF020004FF004011A46FDF7D9FC029B3B
:104C100018460199FFF738FA16E002AB4FF01F0073
:104C20004FF004011A46FDF7CBFC049B4FF0000245
:104C30009A62049B4FF001021A7005E0029B0398F0
:104C40001946FFF77DFF00E000BF07B000BD00BFC1
:104C500082B001900091019B002B05D1009B002B9D
:104C600002D14FF0010301E04FF00003184602B0FB
:104C7000704700BF00B585B0039002910192039B7D
:104C80001A68029B1B6810461946FFF7E1FF0346AE
:104C9000002B0BD0029B019A1A60029B1A68039B9F
:104CA0001A60019B4FF000029A640AE0029B1B68A5
:104CB000019A9A64029B019A1A60019B4FF00002CC
:104CC0009A6405B000BD00BF00B585B001900091A9
:104CD0004FF000030393019B1A68009B1B6810466A
:104CE0001946FFF7B5FF0346002B02D04FF0000333
:104CF00013E0019B1B680393039B9A6C019B1A6052
:104D0000019B1B68002B03D1009B4FF000021A602F
:104D1000039B4FF000029A64039B184605B000BD48
:104D200008B540F6A403C2F200031A6840F6A803CF
:104D3000C2F200031B6810461946FFF789FF0346BD
:104D4000184608BD08B540F6AC03C2F200031A6865
:104D500040F6B003C2F200031B6810461946FFF785
:104D600077FF0346184608BD00B583B0019040F6B2
:104D7000A400C2F2000040F6A801C2F20001019AAC
:104D8000FFF778FF03B000BD08B540F6A400C2F2FB
:104D9000000040F6A801C2F20001FFF795FF0346AC
:104DA000184608BD00B583B0019040F6AC00C2F2D1
:104DB000000040F6B001C2F20001019AFFF75AFF6D
:104DC00003B000BD08B540F6AC00C2F2000040F6EA
:104DD000B001C2F20001FFF777FF0346184608BD95
:104DE00040F6AC03C2F200031B681846704700BFD0
:104DF00000B585B04FF000038DF80B304FF0000385
:104E000003931BE04FF04C0002F0F6F903460193C8
:104E100001984FF000014FF04C0204F04DFC019B53
:104E2000002B04D14FF001038DF80B3009E00198FD
:104E3000FFF79AFF039B03F101030393039B042BEA
:104E4000E0DD9DF80B30184605B000BD00B585B01B
:104E500001900091FFF798FF0390039A009B104682
:104E600001991A4602F0DDF8009A039B1A64039B2D
:104E70004FF000025A640398FFF794FF05B000BD9D
:104E800000B587B003904FF000038DF8173040F263
:104E9000A423C2F200031B681846039900F04EFFDA
:104EA00003468DF817309DF81730002B37D140F2AC
:104EB000A423C2F200031B689B785BB2022B07D1CC
:104EC00040F6A003C2F200034FF000021A7027E080
:104ED00040F2A423C2F200031B689A6840F2A423A4
:104EE000C2F200031B685B6810461946FFF7AEFF6D
:104EF000FFF716FF0346002B12D104AB4FF002025E
:104F0000009203984FF000014FF0000200F00EF8FD
:104F100003468DF817309DF81730002B00E000BFD6
:104F20009DF81730184607B000BD00BF00B58DB022
:104F300005900491039202934FF000038DF82B30FB
:104F4000039B0993099B122B28BF12230893029BF2
:104F5000089A1A604FF000030B9351E04FF00003E2
:104F60008DF81F300DF11F030598194600F068FCFD
:104F700003468DF82B309DF82B30002B75D19DF812
:104F80001F30002B09D00598FFF77AFF03468DF8F4
:104F90002B309DF82B30002B67D1FFF7C1FE034665
:104FA000002B2AD00B9BC72BD4BF00230123DBB2DD
:104FB0000B9A02F101020B92002B21D04FF000035B
:104FC0000B93FFF715FF03468DF82B309DF82B3020
:104FD000002B4AD106AB4FF00202009205984FF029
:104FE00000014FF00002FFF7A1FF03468DF82B30C0
:104FF0009DF82B30002B38D102E04FF000030B93CB
:1050000040F6A003C2F200031B78002B03D09DF8EA
:105010003830022BA2D140F2A823C2F200031B6851
:10502000089A5A6040F2A823C2F200031B689DF858
:1050300038209A7040F2A823C2F200031B689A68D5
:10504000089B104604991A4601F0EBFF40F2A82392
:10505000C2F200031B681846059900F0BBFD034629
:105060008DF82B309DF82B30002B9DF82B301846F7
:105070000DB000BD00B58BB00590049103928DF882
:105080000B304FF0000307934FF0000309934FF0EC
:1050900000038DF823301EE0099B049AD118039A6F
:1050A000099BD21A07AB9DF80B0000900598FFF7FB
:1050B0003DFF03468DF823309DF82330002B0FD1A0
:1050C000079B099AD318099340F6A003C2F2000384
:1050D0004FF001021A70099A039B9A42DCDB00E050
:1050E00000BF9DF8233018460BB000BD00B58DB051
:1050F00005900491039202934FF000038DF82B303A
:10510000FFF76EFE0B900CE00598FFF7B9FE034623
:105110008DF82B309DF82B30002B5AD1FFF760FE15
:105120000B900B9B002BEFD00B9B1A6C0B9B5B6CBB
:10513000D31A0993039A099B9A4203DB029B099AAB
:105140001A6002E0029B039A1A600B9B08930B9B68
:105150005B6C089AD3180893029B1B680498089903
:105160001A4601F05EFF0B9B5A6C029B1B68D2181B
:105170000B9B5A640B9B5A6C0B9B1B6C9A4229D15C
:10518000FFF7CEFD03468DF81F300B9B4FF000025A
:105190001A640B9B4FF000025A64FFF713FE03469C
:1051A0001846FFF7E1FD9DF81F30002B12D006AB2B
:1051B0004FF00202009205984FF000014FF00002FC
:1051C000FFF7B4FE03468DF82B309DF82B30002BF3
:1051D00000E000BF9DF82B3018460DB000BD00BFA9
:1051E00000B585B0019000914FF000038DF80F30AD
:1051F000009B4FF000021A70FFF7A4FD0346002B3E
:1052000028D04FF000038DF80E300DF10E030198F9
:10521000194600F015FB03468DF80F309DF80F304E
:10522000002B1BD19DF80E30002B17D00198FFF7F3
:1052300027FE03468DF80F309DF80F30002B0DD15F
:10524000FFF780FD0346002B08D1009B4FF00102C1
:105250001A7003E0009B4FF001021A709DF80F30A6
:10526000184605B000BD00BF40F6A003C2F200031F
:105270004FF000021A70704708B505E0FFF784FD93
:105280000346184601F0A8FFFFF74AFD0346002B2E
:10529000F4D005E0FFF796FD0346184601F09CFFA9
:1052A000FFF750FD0346002BF4D040F2A423C2F2D6
:1052B00000031B689B68184601F08EFF40F2A42390
:1052C000C2F200031B6818464FF000014FF02402A1
:1052D00004F0F2F940F2A823C2F200031B689B68B5
:1052E000184601F079FF40F2A823C2F200031B68C0
:1052F00018464FF000014FF0240204F0DDF940F6AB
:10530000B003C2F200034FF000021A6040F6B0038F
:10531000C2F200031A6840F6AC03C2F200031A603E
:1053200040F6A803C2F200034FF000021A6040F6F4
:10533000A803C2F200031A6840F6A403C2F20003F5
:105340001A60FFF791FF08BD10B586B0019000917B
:105350004FF0000305934FF0400303934FF0000319
:105360008DF8133000F07EF90590059B002B52D08C
:10537000FFF782FF40F2A823C2F200031C680398E3
:1053800001F03AFF0346A36040F2A823C2F20003F3
:105390001B689B68002B04D14FF001038DF813307C
:1053A0003CE040F2A823C2F200031B68039ADA60D3
:1053B00040F2A423C2F200031C68039801F01CFF12
:1053C0000346A36040F2A423C2F200031B689B685B
:1053D000002B04D14FF001038DF813301EE040F292
:1053E000A423C2F200031B68039ADA60FFF700FDF2
:1053F00003468DF813309DF81330002B0DD105981E
:105400000199009A00F04EF903468DF813309DF88B
:105410001330002B02E000BF00E000BF9DF8133006
:10542000002B02D04FF000030593059B184606B0F1
:1054300010BD00BF00B583B00190FFF71DFF0198BC
:1054400000F09CF90346184603B000BD84B00190FB
:105450004FF000038DF80F309DF80F30184604B060
:10546000704700BF82B001900091019B5B68002BE8
:105470000CBF00230123DBB21A46009B1A704FF0C9
:105480000003184602B0704700B583B00190FFF7E3
:10549000EBFE03B000BD00BF00B583B00190019BDF
:1054A0005B68002B08D0019B5B681846FFF7C2FFC2
:1054B000019B4FF000025A6003B000BD00B589B0F7
:1054C0000390029101924FF0000307934FF0010304
:1054D00006934FF000038DF8173027E0069B4FEA44
:1054E0008303019AD3181B680493069B03F10103FD
:1054F0000693049B002B18D0049849F6B821C0F6F7
:10550000000104F06FF90346002B0FD14FF00103A7
:105510008DF81730069B03F1FF334FEA8303019A9E
:10552000D3184FF000021A6000E000BF069A029BF9
:105530009A42D3DB039B9DF817201A7002980199B9
:10554000FFF702FF0246039B5A60039B5B68002B38
:1055500004D149F6BC23C0F600030793079B184605
:1055600009B000BD82B00190019B1B78184602B0C3
:10557000704700BF40F6B403C2F2000318467047FC
:1055800082B0019002B0704700B587B003900291DD
:10559000019200934FF000038DF81730039B5A6877
:1055A0000DF1160310461946FFF71AFE03468DF853
:1055B00017309DF81730002B17D19DF81630002BAF
:1055C00004D1019B4FF000021A600EE0039B5B6860
:1055D00018460099029A019BFFF788FD03468DF853
:1055E00017309DF81730002B00BF9DF81730184674
:1055F00007B000BD00B587B00390029101920093FF
:105600004FF000038DF81730039B5B681846019933
:10561000029A4FF00103FFF72DFD03468DF8173076
:105620009DF81730002B03D1009B029A1A6000E00E
:1056300000BF9DF81730184607B000BD84B0039036
:105640000291019204B0704700B583B00190019BB4
:105650005B68184600F092F8019B4FF000025A6018
:1056600003B000BD82B040F6C003C2F20003019354
:105670004FF0010300939DF800305BB2012B04D082
:10568000019B4FF000021A7003E0019B4FF00102F2
:105690001A70019B4FF000025A70019B184602B02D
:1056A000704700BF10B586B00390029101924FF091
:1056B00000038DF81730039B5B78002B04D04FF06C
:1056C00001038DF8173053E04FF0100001F094FD06
:1056D00003461A4640F6BC03C2F200031A6040F6C5
:1056E000BC03C2F200031B6818464FF000014FF0E4
:1056F000100203F0E1FF40F6BC03C2F200031B6896
:10570000002B04D14FF001038DF8173030E040F644
:10571000BC03C2F200031B684FF000021A7340F68C
:10572000BC03C2F200031B684FF000025A73039BD4
:105730004FF001025A7040F6BC03C2F200031C682D
:105740000298019900F0FAFC0346236040F6BC037E
:10575000C2F200031B681B68B3F1FF3F08D1039B33
:105760004FF000025A704FF001038DF8173000BF60
:105770009DF81730184606B010BD00BF00B585B0C3
:1057800001904FF000038DF80F30019B5B78002BE8
:1057900002D14FF0010326E0019B4FF000025A7046
:1057A00040F6BC03C2F200031B681B68184600F0F9
:1057B000CFFC029040F6BC03C2F200031B68002B32
:1057C00007D040F6BC03C2F200031B68184601F084
:1057D00003FD029BB3F1FF3F03D14FF001038DF8AE
:1057E0000F309DF80F30184605B000BD00B587B0EA
:1057F0000390029101924FF000038DF81730039B44
:105800005B78002B02D14FF0010315E040F6BC039A
:10581000C2F200031B681B6818460299019AFDF743
:10582000BFFC0490049BB3F1FF3F03D14FF0010391
:105830008DF817309DF81730184607B000BD00BF2F
:1058400000B587B0019000914FF000038DF817303C
:105850004FF000030393019B5B78002B02D14FF0C4
:1058600001034BE040F6BC03C2F200031B681B7B44
:10587000002B06D0009B4FF001021A709DF81730E4
:105880003CE0009B4FF000021A7040F6BC03C2F2ED
:1058900000031B68196840F6BC03C2F200031B68D2
:1058A00003F1040203AB084611464FF0080200F072
:1058B00083FC0490049BB3F1FF3F06D14FF001033A
:1058C0008DF817309DF8173018E0039B002B13D08C
:1058D000009B4FF001021A7040F6BC03C2F20003B5
:1058E0001B68039AD2B21A7340F6BC03C2F20003DB
:1058F0001B684FF000025A739DF81730184607B026
:1059000000BD00BF00B589B00390029101920093E1
:105910004FF000038DF81F304FF0000305934FF058
:1059200000030493019B0693009B4FF000021A6052
:10593000039B5B78002B02D14FF0010368E040F637
:10594000BC03C2F200031B681B7B002B46D040F651
:10595000BC03C2F200031B681B7B1A46069B9A42DB
:1059600038BF1346049340F6BC03C2F200031A6822
:1059700040F6BC03C2F200031B685B7BD31803F143
:10598000040302981946049A01F04BFB40F6BC034D
:10599000C2F200031A6840F6BC03C2F200031B689F
:1059A000197B049BDBB2CB1ADBB2137340F6BC034A
:1059B000C2F200031A6840F6BC03C2F200031B687F
:1059C000597B049BDBB2CB18DBB25373029A049B66
:1059D000D3180293069A049BD31A069340F6BC038D
:1059E000C2F200031B681B6818460299069AFDF76D
:1059F00007FC0590059BB3F1FF3F04D14FF0010375
:105A00008DF81F3002E0009B019A1A609DF81F304C
:105A1000184609B000BD00BF82B003468DF80730BC
:105A20009DF907307E2B07D09DF90730032B03D05B
:105A30009DF907307D2B02D14FF0010301E04FF0BB
:105A40000003184602B0704700B589B00390029178
:105A50000192019B0693039B0593029B04934FF0D5
:105A60000003079330E0049B1B785BB21846FFF7F6
:105A7000D3FF0346002B17D0059B4FF07D021A7011
:105A8000059B03F101030593049B1B7883F020031E
:105A9000DAB2059B1A70059B03F101030593069B7F
:105AA00003F10103069307E0049B1A78059B1A7023
:105AB000059B03F101030593079B03F10103079382
:105AC000049B03F101030493079A019B9A42CAD3F2
:105AD000069B184609B000BD00B589B0039002913D
